:1000000045C0000053C0000051C000004FC00000B8
:100010004DC000004BC0000049C0000047C00000B8
:1000200045C0000043C0000041C000003FC00000C8
:100030003DC000003BC0000039C0000037C00000D8
:1000400035C0000033C0000031C000002FC00000E8
:100050002DC000002BC0000029C0000027C00000F8
:1000600025C0000023C0000021C000001FC0000008
:100070001DC000001BC0000019C0000017C0000018
:1000800015C0000013C0000011C0000011241FBEE5
:10009000CFEFD0E4DEBFCDBF21E0A0E0B1E001C0F2
:1000A0001D92A330B207E1F756D07CC0A9CFCF9301
:1000B000DF93CDB7DEB780910201882F90E08130C9
:1000C0009105C1F0823091051CF4892B39F039C0BB
:1000D00082309105E1F0039739F133C081E08093DC
:1000E00001019091000181E0913009F080E080935E
:1000F00002012DC082E080930101809100018823DC
:1001000011F482E001C081E08093020120C082E00E
:100110008093010180910001813011F483E001C0DE
:1001200082E08093020113C081E0809301018091FD
:100130000001882311F480E001C083E08093020174
:1001400006C081E0809301011092020100000000CE
:10015000DF91CF910895CF93DF93CDB7DEB781E2E2
:1001600090E0FC01108282E290E02FEFFC012083FE
:1001700084E290E02FEFFC01208385E290E0FC0117
:1001800010821092020180E290E0FC018081817077
:10019000809300018CDF85E290E020910101FC0159
:0801A0002083F1CFF894FFCF9A
:00000001FF
